:020000040000FA
:10000000020FA153C87F308503C2853253C8FBC29B
:020010000032BC
:10001300020016858A66858C65758A00758C007565
:100023004E00754F00D20632020003EF4E6017AD4B
:10003300F9ADFA74692DFDACF9ACFAECB505F8EF3E
:070043001F70E81E80E5229A
:10004B00020ED3EF8DF0A4A8F0CF8CF0A428CE8DA8
:10005B00F0A42EFE22BC000BBE0029EF8DF084FF16
:10006B00ADF022E4CCF875F008EF2FFFEE33FEEC89
:10007B0033FCEE9DEC984005FCEE9DFE0FD5F0E9B0
:10008B00E4CEFD22EDF8F5F0EE8420D21CFEADF0AF
:10009B0075F008EF2FFFED33FD4007985006D5F0B4
:1000AB00F222C398FD0FD5F0EA2275F00875820095
:1000BB00EF2FFFEE33FECD33CDCC33CCC58233C522
:1000CB00829BED9AEC99E58298400CF582EE9BFEB3
:1000DB00ED9AFDEC99FC0FD5F0D6E4CEFBE4CDFA0E
:1000EB00E4CCF9A88222B800C1B90059BA002DECB2
:1000FB008BF084CFCECDFCE5F0CBF97818EF2FFF4A
:10010B00EE33FEED33FDEC33FCEB33FB10D70399F1
:10011B004004EB99FB0FD8E5E4F9FA227818EF2F9E
:10012B00FFEE33FEED33FDEC33FCC933C910D705BD
:10013B009BE99A4007EC9BFCE99AF90FD8E0E4C9DC
:10014B00FAE4CCFB2275F010EF2FFFEE33FEED330C
:10015B00FDCC33CCC833C810D7079BEC9AE8994039
:10016B000AED9BFDEC9AFCE899F80FD5F0DAE4CD9B
:10017B00FBE4CCFAE4C8F922EB9FF5F0EA9E42F0DF
:10018B00E99D42F0EC6480C864809845F022A42578
:10019B0082F582E5F03583F583228A838982E473C5
:1001AB00EC8EF0A4CCC5F0CCCDF8EFA4CEC5F02DE1
:1001BB00FDE43CFCE8A42EC8C5F03DFDE43CFCEF9F
:1001CB00A4FFE5F028FEE43DFDE43CFC228F29EF83
:1001DB0075F009A424CAF582E43410F583E493F591
:1001EB002D12072B8F2C0202D1C3E5519453E550EE
:1001FB00940740030202D91210468E2A8F2BC3E5B7
:10020B002B940AE52A949B4058E52D14FFE52C9F6F
:10021B00504D052CE52975F009A424CBF582E43467
:10022B0010F583E493FE740193F5828E8375F002CF
:10023B00E52C120199E493F52E740193F52FE52922
:10024B0075F009A424CDF582E43410F58374019381
:10025B00FA740293F5828A83AF2FAE2E1201A98016
:10026B0065D3E52B9412E52A948440030201F4E54F
:10027B002C940074809480404D152CE52975F00961
:10028B00A424CBF582E43410F583E493FE7401933C
:10029B00F5828E8375F002E52C120199E493F52E0D
:1002AB00740193F52FE52975F009A424D0F582E4A8
:1002BB003410F583740193FA740293F5828A83AF39
:1002CB002FAE2E1201A9E4F550F5510201F422E4F0
:1002DB00F526E526640360191210468E248F25C37C
:1002EB00E525940AE524949B50030203CC05268054
:1002FB00E11210468E248F25D3E5259407E524942F
:10030B0085400AE5259415E524949A400C7FC87E18
:10031B000012002E12103F80D87FDC7E0512002EBB
:10032B00E4F5268054E5267055F528C3E52894039B
:10033B00748094805032AF27120F467FDC7E0512FB
:10034B00002E1210468E248F25C3E5259407E52435
:10035B009485400BD3E5259415E524949A400575B7
:10036B0026018004052880C3E52670B90527D3E54F
:10037B002794077480948040AC75270180A77FF485
:10038B007E0112002EE52724FE24FB500924067063
:10039B000F120CC4800DE52724FEFF1201D8800339
:1003AB00120DCF121031120B22120EBA1210387F0F
:1003BB002C7E0112002E12103812103175EF1080A6
:1003CB00FE22E4F522F523C2AF120F03120E9E7527
:1003DB00E241D2AF7F2C7E0112002E120A52121074
:1003EB0021120D3DD203300307D20812067580F699
:1003FB00120C2C120FB0120EBA1202DA120E5F3060
:10040B000211120DA4C20812067512090A8E5A8F18
:10041B005B8014120EEBC208120675120E1A8E5A5E
:10042B008F5BE4F54CF54D855A56855B57C204C27C
:10043B0005C2072085FD30020D12089892078556DC
:10044B004C85574D8005120BDD9207300749300064
:10045B0007C20812067580F6A2049284AF4DAE4C0B
:10046B00120F3120021530040A0557E557700C05A1
:10047B00568008E5571557700215563001B3E555F0
:10048B00D3956440AC15551555E5559564500385CA
:10049B006455121021809A300197E555656460917F
:1004AB008564551210218089753EEA753F60855829
:1004BB0044855945855846855947C20AC20BC3ED39
:1004CB009FF549EC9EF548C364809480500BC3E4C0
:1004DB009549F549E49548F548E4FFEFC394127448
:1004EB008094805065EF75F003A424F8F582E43412
:1004FB0010F583E493F542740193F543EF75F00324
:10050B00A424F7F582E43410F583E493B5490AE4A7
:10051B00B54806854246854347C3EB9543EA95426A
:10052B00500B200A0885423E85433FD20AD3EB95F8
:10053B0043EA9542500B200B08854440854541D238
:10054B000B8542448543450F8091C3E5419559E5A1
:10055B004095585006855840855941C3E5479559F4
:10056B00E54695585006855846855947D3E5479B30
:10057B00E5469A4006AA3EAB3F800DC3E5479BE597
:10058B00469A5004AA40AB41AE02AF032274FFF56A
:10059B002BF52CE4F52DF52E1210468E2F8F30D324
:1005AB00E5309407E52F948540EEE5309415E52F63
:1005BB00949A50E48056C3E55194DCE55094055071
:1005CB00591210468E2F8F30D3E5309407E52F94B8
:1005DB0085402EE5309415E52F949A5024C3E530D1
:1005EB00952CE52F952B5006852F2B85302CD3E59D
:1005FB0030952EE52F952D40BD852F2D85302E80E6
:10060B00B574FFF52BF52CE4F52DF52E7FE87E0365
:10061B0012002EE4F550F551809CC3E52E952CFF6E
:10062B00E52D952BAD07FCC313FEED13252CF530F3
:10063B00E52B3EF52FC3E56A9530FFE569952FFE57
:10064B00C3E5309FF568E52F9EF567AE04ED7802A4
:10065B00CEC313CE13D8F92DF50DEE3CF50CE4F506
:10066B0008F509852F0A85300B22D2033008033099
:10067B0006FD30064BC2AFE565F532E566F533D2C4
:10068B00AFC206C203C3E5339490E532944C5011CC
:10069B00D203856B32856C33AF33AE32120E3D8095
:1006AB0003E4F552D3E533948CE53294D24008D26F
:1006BB0003856B32856C3330080685326B85336C62
:1006CB00D3E54F946FE54E94014006856232856306
:1006DB003320034120083EAF33AE321209E88E328D
:1006EB008F33120B868E328F33C3E5339568E53229
:1006FB00956750088567328568338011D3E533954C
:10070B006AE53295694006856932856A3385326BB5
:10071B0085336C8006856B32856C33AE32AF3322FA
:10072B00EF75F009A424CAF582E43410F583E49341
:10073B00F9EF14601414601914601C14601F240466
:10074B007020E5557C00FD8019A202E4FC33FD808E
:10075B0011AC13AD14800BAC58AD598005E55CFDA5
:10076B007C00E4FEEEC399502DEF75F009A424CB69
:10077B00F582E43410F583E493FA740193F5828ADD
:10078B008375F002EE1201997401936D7003E4937B
:10079B006C60030E80CEEEB50102E4FEAF0622D2F2
:1007AB0008AE56AF57E4FCFD7B607AEAF9F8C3124A
:1007BB000183600AE557B4FF11E556B4FF0C74FFD3
:1007CB00F556F557A2059204C322AE56AF57E4FC7B
:1007DB00FD7B307A75F9F8C312018350028016E560
:1007EB005725E0F557E55633F556D3E557955BE5B9
:1007FB0056955A4006855A56855B57E557B4FF14F4
:10080B00E556B4FF0F300106855E55121021755663
:10081B00EA755760A20822D3E557955BE556955AC2
:10082B004004C2058002D205A205300401B3402565
:10083B00E54D454C7011754CEA754D6030010685E0
:10084B005E55121021D322AB4DAA4CAD5BAC5AAF07
:10085B0057AE56802FE54D454C6013AE4CAF4DE473
:10086B00FCFD7B607AEAF9F8C3120183700BE4F5A7
:10087B004CF54DA2059204C322AB4DAA4C7D017CD5
:10088B0000E4FFFE1204B38E4C8F4DD322C208122C
:10089B00067512090A8E5A8F5BE55BB4FF07E55AA2
:1008AB00B4FF028030E557B4FF16E556B4FF1130A4
:1008BB000106855E551210217556EA755760D322D5
:1008CB00A205300401B35002800BD3E55B9557E5CD
:1008DB005A955640030207AAC3E55B9557E55A950F
:1008EB0056501AE556C313F556E55713F557C395EE
:1008FB005BE556955A5006855A56855B57D322D3DE
:10090B00EF9563EE95624013EF9563FFEE9562CF23
:10091B0024FFFDEF34FFFCD205800BC3E5639FFD85
:10092B00E5629EFCC205C3ED94EAEC940150057E92
:10093B00FF7FFF2274162DFD74FE3CFC4D70067C70
:10094B00EA7D60801CAF05AE04E4FCFD12100F8540
:10095B00602A85612B120D03C374609FFD74EA9EA0
:10096B00FCAF05AE04120C7AAC06AD07120C7A2262
:10097B008E368F378C388D39E4F53AF53B753CEA7A
:10098B00753D602000FDA2099284AF3DAE3C120F75
:10099B0031053BE53B7002053AC3E53B9539E53A3A
:1009AB0095385038AB3DAA3CAD39AC38AF3BAE3A7D
:1009BB001204B38E3C8F3DC3E53D9537E53C953630
:1009CB00500685363C85373D2000FDAF3DAE3C12D1
:1009DB000F31053BE53B70C1053A80BD22AD12EDF1
:1009EB0025E0246DF8E6FC08E6FBAA04AD12ED2524
:1009FB00E0246DF8A60608A607E4FCFDE5112FF52B
:100A0B0011E5103EF510ED350FF50FEC350EF50E2B
:100A1B00AE02AF03C3E5119BF511E5109AF510E596
:100A2B000F9400F50FE50E9400F50E0512AF12EFC3
:100A3B00640C7002F512E47B0CFAF9F8AF11AE10EE
:100A4B00AD0FAC0E0200F1120DF690180DE4936F82
:100A5B00600D120DCF7F647E0012002E120B2290C0
:100A6B001800E493F567740193F568901802E4930A
:100A7B00F569740193F56A901804E493F555A3E4B2
:100A8B009324FF9202A3E493F513740193F514904E
:100A9B001808E493F558740193F55990180AE493E8
:100AAB00F50C740193F50D90180CE493F55C228F03
:100ABB005CE55C24C4600D24EC600E2428700F757B
:100ACB003102800D75310380087531048003753157
:100ADB0001E4F530E530C39531500E12103F7F2CF9
:100AEB007E0112002E053080EBE4F530C3E5309427
:100AFB000774809480501F121046C3EF940AEE9433
:100B0B009B5008EF9412EE9484500B7F647E00127E
:100B1B00002E053080D622755DA5755FF11210048D
:100B2B007F677D007C18120E807F697D027C181216
:100B3B000E807D047C18AF55120F5BA202E433FFCD
:100B4B007D057C18120F5B7F137D067C18120E80BF
:100B5B007F587D087C18120E807F0C7D0A7C181242
:100B6B000E807D0C7C18AF5C120F5B120DF67D0DA9
:100B7B007C18120F5BE4F55DF55F22D3E50B9FE567
:100B8B000A9E400AE50B9FFDE50A9EFC8009C3EF18
:100B9B00950BFDEE950AFCC2AFAB51AA50D2AFD369
:100BAB00E509950DE508950C4007E4F550F55180E6
:100BBB0018D3EB942BEA9401400FD3ED950DEC95E4
:100BCB000C5006AE0AAF0B80048E0A8F0B8C088D6F
:100BDB000922C208120675120E1A8E5A8F5BE55B3C
:100BEB0065577004E55A65566003020822AE4CAF98
:100BFB004DE4FCFD7B607AEAF9F8C31201836006D1
:100C0B00E54D454C7007E4F54CF54DC322AB4DAAB1
:100C1B004C7D017C00E4FFFE1204B38E4C8F4DD350
:100C2B0022E4FBFAF511F510F50FF50EF512AF12E4
:100C3B00C3EF940C748094805031D208120675AABD
:100C4B0006AB07AF12EF25E0246DF8A60208A6034A
:100C5B00E4FCFDE5112BF511E5103EF510ED350F1C
:100C6B00F50FEC350EF50E051280C3E4F51222C319
:100C7B00EF9559FFEE9558FEAD07FC1201ABC00482
:100C8B00C005C006C007AE58AF59AB07AA06C37460
:100C9B00609BFF74EA9AFEE49400FDE49400AB07BA
:100CAB00AA06A905F8D007D006D005D0041200F18A
:100CBB00E5592FFFE5583EFE22E4F529F52A1210DF
:100CCB0046D3EF940AEE949B40F4E4F550F551C3F0
:100CDB00E5519477E55094015012121046D3EF95DD
:100CEB002AEE952940E98E298F2A80E3852969858B
:100CFB002A6A1210380205988F298E288D278C2688
:100D0B00E52924FFFFE52834FFFEE52734FFFDE549
:100D1B002634FFFCC006C007AE2AAF2BAB07AA06D2
:100D2B00E4F9F8D007D0061200F1EF2401FFE43EFE
:100D3B00FE22E55C7006C201F55E802BD201AF5539
:100D4B007E007C007D0A12004EAA06AB07E55CFD17
:100D5B007E037FE8120060AD07AC06AF03AE021254
:100D6B000060E5552FF55E855564228E328F338CEE
:100D7B00348D35E532C313F532E53313F533A20861
:100D8B009209FFAE3212097BB208A2089209AD3567
:100D9B00AC34AF33AE3202097BC374609559F52581
:100DAB0074EA9558F524E5542416FFE55334FEFEFA
:100DBB00E4FCFD12100F85242A85252B120D038EC2
:100DCB00608F612275676A7568E67569B4756A35F7
:100DDB00755805755995750C00750D93E4F55C7593
:100DEB005515C20275130375142022E4FFFD7C1800
:100DFB00FEEEC3940C74809480500FED2EF582E4BC
:100E0B003CF583E4932FFF0E80E7EFF404FF22C33E
:100E1B00EF9568FFEE9567FE4F600FE4FCFD120F38
:100E2B006E85602A85612B120D03EF2414FFE43EBF
:100E3B00FE22C3EF9492EE94094018D3EF9450EE38
:100E4B00940F500F0552E552940A7480948040031E
:100E5B0012104B22C3E56A9568F54BE5699567F56A
:100E6B004AC313F553E54B13F5542568F563E56752
:100E7B003553F56222AB05AA04A907A801E6FEEEDD
:100E8B00FF120F5BA80108E6FFED2401FDE43CFC1B
:100E9B00020F5B121031E4F5D875DA4275D909757A
:100EAB00A43843F10475D40375D84043E60422D229
:100EBB0085C2847F017E0012002ED2837F017E00CB
:100ECB0012002EC285C28422C0E00551E55170028A
:100EDB000550054FE54F7002054E53D87FD0E032D9
:100EEB00AE4AAF4BE4FCFD120F6E85132A85142B13
:100EFB00120D038E608F612243F101758909758E86
:100F0B0004758814E4F5E4F5E675A826C20022EE14
:100F1B004F24FF920212103F30020A7F2C7E0112E7
:100F2B00002E12103F22EFF4FDEEF4F5CD8DCCF533
:100F3B00CB8DCAD28543C804D200228F29E5296004
:100F4B000E12103F7F2C7E0112002E152980EE22EF
:100F5B008D828C83C3EC94184008120FBFEFF012F4
:100F6B001018227C008E05C3EF33FEED33FDEC33FE
:100F7B00FC7F00228E138F14D208AD14AC13AF5923
:100F8B00AE58020D768E138F14C208AD14AC13AF8E
:100F9B0059AE58020D76120FF7787FE4F6D8FD752F
:100FAB0081840203CDE4F508F509D2081206758E8B
:100FBB000A8F0B22C2AF438F01538FFD855DB7851F
:100FCB005FB722C2AF438F02438F01855DB7855F49
:100FDB00B722AD07AC06D2087FD07E07020D768E06
:100FEB00588F59D208AD14AC13020D7675D9007514
:100FFB00EF0675B2C743FF2022901800120FCEE404
:10100B00F00210188F058E047F007E0022538FFE96
:10101B00538FFDD2AF22E555F4F5FBF5FC228F552E
:10102B00121021021038C283C285C284227FF47E43
:10103B0001020FDD7F7D7E00020FDDD208020675F7
:10104B00C2032212019011019A1001AE0F01CC0EB6
:10105B0001F40D02260C02620B02BC0A03340903D5
:10106B00E808051407073A060AF005125C0424B8D1
:10107B000349700292E001EA600007000E001500C0
:10108B001C0023002C0035003E004700000001012E
:10109B00900258032004B0064007D009600AF00CF8
:1010AB00800FA0057804B003E8035202BC0258027B
:1010BB0026020801FE01F400000028003C00500944
:1010CB001084FF1029FF1029021096FF0F1AFF0F33
:1010DB001A0A109AFF0F7FFF0F900A10AEFF0FEA4C
:1010EB00FF0FEA0410C2FF0ABAFF0ABA12019011ED
:1010FB00019A1001AE0F01CC0E01F40D02260C0269
:10110B00620B02BC0A03340903E808051407073A0B
:10111B00060AF005125C0424B80349700292E00140
:02112B00EA6078
:00000001FF
