:020000040000FA
:10000000020FB853C87F308503C2853253C8FBC284
:020010000032BC
:10001300020016858A66858C65758A00758C007565
:100023004E00754F00D20632020003EF4E6017AD4B
:10003300F9ADFA74692DFDACF9ACFAECB505F8EF3E
:070043001F70E81E80E5229A
:10004B00020EEAEF8DF0A4A8F0CF8CF0A428CE8D91
:10005B00F0A42EFE22BC000BBE0029EF8DF084FF16
:10006B00ADF022E4CCF875F008EF2FFFEE33FEEC89
:10007B0033FCEE9DEC984005FCEE9DFE0FD5F0E9B0
:10008B00E4CEFD22EDF8F5F0EE8420D21CFEADF0AF
:10009B0075F008EF2FFFED33FD4007985006D5F0B4
:1000AB00F222C398FD0FD5F0EA2275F00875820095
:1000BB00EF2FFFEE33FECD33CDCC33CCC58233C522
:1000CB00829BED9AEC99E58298400CF582EE9BFEB3
:1000DB00ED9AFDEC99FC0FD5F0D6E4CEFBE4CDFA0E
:1000EB00E4CCF9A88222B800C1B90059BA002DECB2
:1000FB008BF084CFCECDFCE5F0CBF97818EF2FFF4A
:10010B00EE33FEED33FDEC33FCEB33FB10D70399F1
:10011B004004EB99FB0FD8E5E4F9FA227818EF2F9E
:10012B00FFEE33FEED33FDEC33FCC933C910D705BD
:10013B009BE99A4007EC9BFCE99AF90FD8E0E4C9DC
:10014B00FAE4CCFB2275F010EF2FFFEE33FEED330C
:10015B00FDCC33CCC833C810D7079BEC9AE8994039
:10016B000AED9BFDEC9AFCE899F80FD5F0DAE4CD9B
:10017B00FBE4CCFAE4C8F922EB9FF5F0EA9E42F0DF
:10018B00E99D42F0EC6480C864809845F022A42578
:10019B0082F582E5F03583F583228A838982E473C5
:1001AB00EC8EF0A4CCC5F0CCCDF8EFA4CEC5F02DE1
:1001BB00FDE43CFCE8A42EC8C5F03DFDE43CFCEF9F
:1001CB00A4FFE5F028FEE43DFDE43CFC228F29EF83
:1001DB0075F009A424E1F582E43410F583E493F57A
:1001EB002D1207428F2C0202D1C3E5519453E550D7
:1001FB00940740030202D912105D8E2A8F2BC3E5A0
:10020B002B940AE52A949B4058E52D14FFE52C9F6F
:10021B00504D052CE52975F009A424E2F582E43450
:10022B0010F583E493FE740193F5828E8375F002CF
:10023B00E52C120199E493F52E740193F52FE52922
:10024B0075F009A424E4F582E43410F5837401936A
:10025B00FA740293F5828A83AF2FAE2E1201A98016
:10026B0065D3E52B9412E52A948440030201F4E54F
:10027B002C940074809480404D152CE52975F00961
:10028B00A424E2F582E43410F583E493FE74019325
:10029B00F5828E8375F002E52C120199E493F52E0D
:1002AB00740193F52FE52975F009A424E7F582E491
:1002BB003410F583740193FA740293F5828A83AF39
:1002CB002FAE2E1201A9E4F550F5510201F4227460
:1002DB00FFF52BF52CE4F52DF52E12105D8E2F8FDF
:1002EB0030D3E5309407E52F948540EEE530941537
:1002FB00E52F949A50E4E4F550F551C3E55194EE93
:10030B00E5509402506612105D8E2F8F3080ECC337
:10031B00E55194DCE5509405505912105D8E2F8FEA
:10032B0030D3E5309407E52F9485402EE5309415B6
:10033B00E52F949A5024C3E530952CE52F952B503F
:10034B0006852F2B85302CD3E530952EE52F952D5B
:10035B0040BD852F2D85302E80B574FFF52BF52CE8
:10036B00E4F52DF52E7FE87E0312002EE4F550F513
:10037B0051809CC3E52E952CFFE52D952BAD07FCED
:10038B00C313FEED13252CF530E52B3EF52FC3E5FE
:10039B006A9530FFE569952FFEC3E5309FF568E55B
:1003AB002F9EF567AE04ED7802CEC313CE13D8F9AA
:1003BB002DF50DEE3CF50CE4F508F509852F0A85B6
:1003CB00300B22E4F526E5266403601912105D8ECE
:1003DB00248F25C3E525940AE524949B500302043E
:1003EB00C0052680E112105D8E248F25D3E5259460
:1003FB0007E5249485400AE5259415E524949A4055
:10040B000C7FC87E0012002E12105680D87FDC7E27
:10041B000512002EE4F5268054E5267055F528C309
:10042B00E5289403748094805032AF27120F5D7FC0
:10043B00DC7E0512002E12105D8E248F25C3E52560
:10044B009407E5249485400BD3E5259415E5249476
:10045B009A40057526018004052880C3E52670B9EE
:10046B000527D3E52794077480948040AC7527014A
:10047B0080A77FF47E0112002EE52724FE24FB507B
:10048B00092406700F120CDB800DE52724FEFF12EA
:10049B0001D88003120DE6121048120B39120ED13F
:1004AB0012104F7F2C7E0112002E12104F1210488B
:1004BB0075EF1280FE22E4F522F523C2AF120F1A5C
:1004CB00120EB575E241D2AF7F2C7E0112002E12B7
:1004DB000A69121038120D54D203300307D20812D6
:1004EB00068C80F6120C43120FC7120ED11203CEDC
:1004FB00120E76300211120DBBC20812068C1209B5
:10050B00218E5A8F5B8014120F02C20812068C12B6
:10051B000E318E5A8F5BE4F54CF54D855A56855B43
:10052B0057C204C205C2072085FD30020D1208AF69
:10053B00920785564C85574D8005120BF492073068
:10054B000749300007C20812068C80F6A204928479
:10055B00AF4DAE4C120F4820021530040A0557E57B
:10056B0057700C05568008E5571557700215563015
:10057B0001B3E555D3956440AC15551555E5559527
:10058B00645003856455121038809A300197E555F5
:10059B00656460918564551210388089753EEA75E3
:1005AB003F60855844855945855846855947C20A49
:1005BB00C20BC3ED9FF549EC9EF548C36480948054
:1005CB00500BC3E49549F549E49548F548E4FFEF32
:1005DB00C39412748094805065EF75F003A4240FBC
:1005EB00F582E43411F583E493F542740193F543FA
:1005FB00EF75F003A4240EF582E43411F583E49334
:10060B00B5490AE4B54806854246854347C3EB9591
:10061B0043EA9542500B200A0885423E85433FD260
:10062B000AD3EB9543EA9542500B200B08854440C7
:10063B00854541D20B8542448543450F8091C3E5E7
:10064B00419559E54095585006855840855941C309
:10065B00E5479559E54695585006855846855947BF
:10066B00D3E5479BE5469A4006AA3EAB3F800DC3B8
:10067B00E5479BE5469A5004AA40AB41AE02AF0357
:10068B0022D2033008033006FD30064BC2AFE565BE
:10069B00F532E566F533D2AFC206C203C3E5339438
:1006AB0090E532944C5011D203856B32856C33AF8D
:1006BB0033AE32120E548003E4F552D3E533948CEF
:1006CB00E53294D24008D203856B32856C33300807
:1006DB000685326B85336CD3E54F946FE54E9401F1
:1006EB00400685623285633320034120083EAF33D9
:1006FB00AE321209FF8E328F33120B9D8E328F3337
:10070B00C3E5339568E53295675008856732856890
:10071B00338011D3E533956AE532956940068569D7
:10072B0032856A3385326B85336C8006856B3285F7
:10073B006C33AE32AF3322EF75F009A424E1F582AE
:10074B00E43410F583E493F9EF1460141460191476
:10075B00601C14601F24047020E5557C00FD80197B
:10076B00A202E4FC33FD8011AC13AD14800BAC582A
:10077B00AD598005E55CFD7C00E4FEEEC399502D80
:10078B00EF75F009A424E2F582E43410F583E493C9
:10079B00FA740193F5828A8375F002EE1201997453
:1007AB0001936D7003E4936C60030E80CEEEB50184
:1007BB0002E4FEAF0622D208AE56AF57E4FCFD7B37
:1007CB00607AEAF9F8C3120183600AE557B4FF11A6
:1007DB00E556B4FF0C74FFF556F557A2059204C30A
:1007EB0022AE56AF57E4FCFD7B307A75F9F8C31295
:1007FB00018350028016E55725E0F557E55633F592
:10080B0056D3E557955BE556955A4006855A56855E
:10081B005B57E557B4FF14E556B4FF0F300106855F
:10082B005E551210387556EA755760A20822D3E54B
:10083B0057955BE556955A4004C2058002D205A236
:10084B0005300401B34025E54D454C7011754CEA5C
:10085B00754D60300106855E55121038D322AB4DB5
:10086B00AA4CAD5BAC5AAF57AE56802FE54D454CFD
:10087B006013AE4CAF4DE4FCFD7B607AEAF9F8C334
:10088B00120183700BE4F54CF54DA2059204C322C3
:10089B00AB4DAA4C7D017C00E4FFFE1205A78E4CEC
:1008AB008F4DD322C20812068C1209218E5A8F5BF0
:1008BB00E55BB4FF07E55AB4FF028030E557B4FFA0
:1008CB0016E556B4FF11300106855E5512103875CA
:1008DB0056EA755760D322A205300401B35002804B
:1008EB000BD3E55B9557E55A955640030207C1C3F9
:1008FB00E55B9557E55A9556501AE556C313F556D1
:10090B00E55713F557C3955BE556955A5006855A2F
:10091B0056855B57D322D3EF9563EE95624013EF69
:10092B009563FFEE9562CF24FFFDEF34FFFCD205FC
:10093B00800BC3E5639FFDE5629EFCC205C3ED948E
:10094B00EAEC940150057EFF7FFF2274162DFD7497
:10095B00FE3CFC4D70067CEA7D60801CAF05AE044E
:10096B00E4FCFD12102685602A85612B120D1AC33B
:10097B0074609FFD74EA9EFCAF05AE04120C91AC43
:10098B0006AD07120C91228E368F378C388D39E4D9
:10099B00F53AF53B753CEA753D602000FDA20992E6
:1009AB0084AF3DAE3C120F48053BE53B7002053A68
:1009BB00C3E53B9539E53A95385038AB3DAA3CAD8C
:1009CB0039AC38AF3BAE3A1205A78E3C8F3DC3E531
:1009DB003D9537E53C9536500685363C85373D20B1
:1009EB0000FDAF3DAE3C120F48053BE53B70C1052A
:1009FB003A80BD22AD12ED25E0246DF8E6FC08E649
:100A0B00FBAA04AD12ED25E0246DF8A60608A60797
:100A1B00E4FCFDE5112FF511E5103EF510ED350F5A
:100A2B00F50FEC350EF50EAE02AF03C3E5119BF5DA
:100A3B0011E5109AF510E50F9400F50FE50E9400F3
:100A4B00F50E0512AF12EF640C7002F512E47B0C7D
:100A5B00FAF9F8AF11AE10AD0FAC0E0200F1120E99
:100A6B000D90180DE4936F600D120DE67F647E0000
:100A7B0012002E120B39901800E493F56774019352
:100A8B00F568901802E493F569740193F56A901870
:100A9B0004E493F555A3E49324FF9202A3E493F5A6
:100AAB0013740193F514901808E493F5587401939B
:100ABB00F55990180AE493F50C740193F50D901801
:100ACB000CE493F55C228F5CE55C24C4600D24EC94
:100ADB00600E2428700F753102800D75310380086C
:100AEB007531048003753101E4F530E530C3953180
:100AFB00500E1210567F2C7E0112002E053080EB0B
:100B0B00E4F530C3E530940774809480501F1210C5
:100B1B005DC3EF940AEE949B5008EF9412EE94840D
:100B2B00500B7F647E0012002E053080D622755D3F
:100B3B00A5755FF112101B7F677D007C18120E9755
:100B4B007F697D027C18120E977D047C18AF5512BD
:100B5B000F72A202E433FF7D057C18120F727F1314
:100B6B007D067C18120E977F587D087C18120E9705
:100B7B007F0C7D0A7C18120E977D0C7C18AF5C12D3
:100B8B000F72120E0D7D0D7C18120F72E4F55DF5D0
:100B9B005F22D3E50B9FE50A9E400AE50B9FFDE51F
:100BAB000A9EFC8009C3EF950BFDEE950AFCC2AFC4
:100BBB00AB51AA50D2AFD3E509950DE508950C4082
:100BCB0007E4F550F5518018D3EB942BEA940140D0
:100BDB000FD3ED950DEC950C5006AE0AAF0B8004C0
:100BEB008E0A8F0B8C088D0922C20812068C120EEE
:100BFB00318E5A8F5BE55B65577004E55A6556601D
:100C0B0003020839AE4CAF4DE4FCFD7B607AEAF988
:100C1B00F8C31201836006E54D454C7007E4F54CB3
:100C2B00F54DC322AB4DAA4C7D017C00E4FFFE12B7
:100C3B0005A78E4C8F4DD322E4FBFAF511F510F579
:100C4B000FF50EF512AF12C3EF940C748094805015
:100C5B0031D20812068CAA06AB07AF12EF25E0249F
:100C6B006DF8A60208A603E4FCFDE5112BF511E5D2
:100C7B00103EF510ED350FF50FEC350EF50E051298
:100C8B0080C3E4F51222C3EF9559FFEE9558FEADE4
:100C9B0007FC1201ABC004C005C006C007AE58AFBD
:100CAB0059AB07AA06C374609BFF74EA9AFEE494DF
:100CBB0000FDE49400AB07AA06A905F8D007D006FF
:100CCB00D005D0041200F1E5592FFFE5583EFE2266
:100CDB00E4F529F52A12105DD3EF940AEE949B40AC
:100CEB00F4E4F550F551C3E5519477E55094015078
:100CFB001212105DD3EF952AEE952940E98E298FBC
:100D0B002A80E3852969852A6A12104F0202DA8F3D
:100D1B00298E288D278C26E52924FFFFE52834FF13
:100D2B00FEE52734FFFDE52634FFFCC006C007AE09
:100D3B002AAF2BAB07AA06E4F9F8D007D0061200AE
:100D4B00F1EF2401FFE43EFE22E55C7006C201F5E3
:100D5B005E802BD201AF557E007C007D0A12004EC7
:100D6B00AA06AB07E55CFD7E037FE8120060AD07CA
:100D7B00AC06AF03AE02120060E5552FF55E85554C
:100D8B0064228E328F338C348D35E532C313F532BA
:100D9B00E53313F533A2089209FFAE32120992B272
:100DAB0008A2089209AD35AC34AF33AE32020992CA
:100DBB00C374609559F52574EA9558F524E55424C8
:100DCB0016FFE55334FEFEE4FCFD12102685242AA3
:100DDB0085252B120D1A8E608F612275676A7568D7
:100DEB00E67569B4756A357558027559BC750C0092
:100DFB00750D93E4F55C755515C2027513037514E7
:100E0B002022E4FFFD7C18FEEEC3940C74809480CA
:100E1B00500FED2EF582E43CF583E4932FFF0E800B
:100E2B00E7EFF404FF22C3EF9568FFEE9567FE4FE3
:100E3B00600FE4FCFD120F8585602A85612B120D76
:100E4B001AEF2414FFE43EFE22C3EF9492EE9409B2
:100E5B004018D3EF9450EE940F500F0552E5529477
:100E6B000A74809480400312106222C3E56A95686D
:100E7B00F54BE5699567F54AC313F553E54B13F548
:100E8B00542568F563E5673553F56222AB05AA0473
:100E9B00A907A801E6FEEEFF120F72A80108E6FFF4
:100EAB00ED2401FDE43CFC020F72121048E4F5D86E
:100EBB0075DA4275D90975A43843F10475D40375F5
:100ECB00D84043E60422D285C2847F017E00120003
:100EDB002ED2837F017E0012002EC285C28422C0D7
:100EEB00E00551E55170020550054FE54F700205C5
:100EFB004E53D87FD0E032AE4AAF4BE4FCFD120F1D
:100F0B008585132A85142B120D1A8E608F6122434F
:100F1B00F101758909758E04758814E4F5E4F5E61D
:100F2B0075A826C20022EE4F24FF920212105630F3
:100F3B00020A7F2C7E0112002E12105622EFF4FDB6
:100F4B00EEF4F5CD8DCCF5CB8DCAD28543C804D24A
:100F5B0000228F29E529600E1210567F2C7E01127C
:100F6B00002E152980EE228D828C83C3EC941840C1
:100F7B0008120FD6EFF012102F227C008E05C3EF54
:100F8B0033FEED33FDEC33FC7F00228E138F14D236
:100F9B0008AD14AC13AF59AE58020D8D8E138F14D0
:100FAB00C208AD14AC13AF59AE58020D8D12100E12
:100FBB00787FE4F6D8FD7581840204C1E4F508F569
:100FCB0009D20812068C8E0A8F0B22C2AF438F01F7
:100FDB00538FFD855DB7855FB722C2AF438F024349
:100FEB008F01855DB7855FB722AD07AC06D2087F51
:100FFB00D07E07020D8D8E588F59D208AD14AC13CD
:10100B00020D8D75D90075EF0675B2C743FF20220F
:10101B00901800120FE5E4F002102F8F058E047F5D
:10102B00007E0022538FFE538FFDD2AF22E555F485
:10103B00F5FBF5FC228F5512103802104FC283C2FC
:10104B0085C284227FF47E01020FF47F7D7E000235
:10105B000FF4D20802068CC2032212019011019ADE
:10106B001001AE0F01CC0E01F40D02260C02620B27
:10107B0002BC0A03340903E808051407073A060AF9
:10108B00F005125C0424B80349700292E001EA6097
:10109B000007000E0015001C0023002C0035003E3D
:1010AB0000470000000101900258032004B00640E5
:1010BB0007D009600AF00C800FA0057804B003E894
:1010CB00035202BC02580226020801FE01F4000082
:1010DB000028003C005009109BFF1040FF104002FD
:1010EB0010ADFF0F31FF0F310A10B1FF0F96FF0F3D
:1010FB00A70A10C5FF1001FF10010410D9FF0AD178
:10110B00FF0AD112019011019A1001AE0F01CC0E02
:10111B0001F40D02260C02620B02BC0A0334090314
:10112B00E808051407073A060AF005125C0424B810
:09113B000349700292E001EA6030
:00000001FF
